:020000040800F2
:10000000A006002091010008990100089B0100084A
:100010009D0100089F010008A101000800000000E8
:10002000000000000000000000000000A301000824
:10003000A501000800000000A7010008A9010008B0
:10004000AB010008AB010008AB010008AB010008E0
:10005000AB010008AB010008AB010008AB010008D0
:10006000AB010008AB010008A1040008AB010008C7
:10007000AB010008AB010008AB010008AB010008B0
:10008000AB010008AB010008AB010008AB010008A0
:10009000AB010008AB010008AB010008AB01000890
:1000A000AB01000809080008AB010008AB0100081B
:1000B000AB010008AB010008AB010008AB01000870
:1000C000AB010008AB010008AB010008AB01000860
:1000D000AB010008AB010008AB010008AB01000850
:1000E000AB010008AB010008AB01000800F002F80A
:1000F00000F03FF80AA090E8000C82448344AAF183
:100100000107DA4501D100F034F8AFF2090EBAE880
:100110000F0013F0010F18BFFB1A43F0010318473B
:10012000CC1C0000EC1C0000103A24BF78C878C139
:10013000FAD8520724BF30C830C144BF04680C60ED
:10014000704700000023002400250026103A28BF35
:1001500078C1FBD8520728BF30C148BF0B60704739
:10016000642900F07D80002070471FB51FBD10B5C9
:1001700010BD00F02AF91146FFF7F7FF00F0EEFD81
:1001800000F048F903B4FFF7F2FF03BC00F050F9A8
:100190000948804709480047FEE7FEE7FEE7FEE71B
:1001A000FEE7FEE7FEE7FEE7FEE7FEE70448054957
:1001B000054A064B70470000B1070008ED00000833
:1001C000A0000020A0060020A0020020A002002025
:1001D0000FB41CB5074B06AA7B44694600900598EE
:1001E00000F0DBF80020694600F0EAF81CBC5DF87E
:1001F00014FB0000E50100002DE9F0410E46044625
:10020000002020622046E168884730B3252805D0C9
:10021000D4E901219047206A401CF2E7E1682046BA
:1002200000278847050018D0A5F14100192802D8F9
:1002300020354FF400673246294620462760FFF7F5
:100240008FFF40B1012804D0F61D26F007060836BE
:10025000D8E7361DD6E72846DAE7206ABDE8F08100
:100260002DE9F0410646002410687529314616A58F
:1002700010D0AFF30080002802DA404213A507E057
:1002800031688A0701D512A502E0490704D511A5F6
:10029000012401E0AFF3008000210A2206F12407C7
:1002A00009E0B0FBF2FCB0FBF2F302FB1C003030C3
:1002B00078541846491C0028F3D123462A46304674
:1002C000BDE8F04100F00BB8000000002D00000078
:1002D0002B000000200000007047704770472DE998
:1002E000F0470D4699469246044600F124080168FD
:1002F000880604D5E06921F01001216000E00120AA
:10030000A84201DD471B00E00027A1697A1902EB32
:100310000900081AA0612078C00602D42046AFF375
:100320000080002608E0D4E901211AF80600904771
:10033000206A401C761C20624E45F4DB2078C00603
:100340000AD52046AFF3008006E0D4E90121302031
:100350009047206A401C2062381EA7F10107F4DC98
:1003600007E0D4E9012118F805009047206A401CF5
:100370002062281EA5F10105F3DC2046AFF30080C2
:100380002078000602D50220BDE8F0870120FBE7B7
:1003900001694A1C02610878704700B58FB0CDE949
:1003A00001310021059105497944CDE90310114639
:1003B0006846FFF721FF0FB000BD0000E5FFFFFF1B
:1003C0000A6802F8010B0A607047754600F02CF8C5
:1003D000AE4605006946534620F00700854618B032
:1003E00020B5FFF7E3FEBDE820404FF000064FF0D8
:1003F00000074FF000084FF0000BAC46ACE8C00916
:10040000ACE8C009ACE8C009ACE8C00921F00701BC
:100410008D46704710B50446AFF300802046BDE816
:100420001040FFF7AFBE00000048704728000020D2
:1004300001491820ABBEFEE726000200704700000D
:10044000B0B50D46012904460BDB2078617862685F
:100450002B4600F00BFDA078E1786268002300F0E5
:1004600005FDB5F1FF3F0BDC207861786268002361
:1004700000F0FCFCA078E17862686B4200F0F6FCCA
:10048000002D18BFB0BD207861786268002300F0AD
:10049000EDFCA078E1786268002300F0E7FCB0BDD5
:1004A000B0B540F21440C4F20100016840F290047B
:1004B00041F001010160C2F20004206844F6D3510A
:1004C000C1F2620180FB0101881100EBD1750120AE
:1004D000052100F0E1F8216801280ED1B1F57A7FFD
:1004E00019DB4FF61840CFF6FF70002D48BF6D4264
:1004F00005FB00102060012011E011F57A7F0CDC73
:100500004FF47A70002D48BF6D4205FB001020604B
:100510004FF0FF3003E0012001E04FF0FF30216891
:1005200008442060B0BD000010B50446DDE902C0FB
:1005300021706270A37084F803C001F073FB014660
:100540004FF07E5001F090FA0021C4F27A4101F0A0
:1005500081FB01F04BFB606010BD000010B504464C
:10056000029821706270A370E07008461146002264
:10057000022300F0A5FBA078E1780022022300F01E
:100580009FFB4FF60C4040F20041CFF6FF70C4F2E3
:100590000101102272B60A50086840F0100008608D
:1005A000886840F01000886000F0E0FA62B610BD84
:1005B0002DE9F04F83B00DF130091946174699E83F
:1005C0000C020446384601F03BF9D4E908860027BE
:1005D000C4F2690782468B464046314600223B46BC
:1005E000002501F025FAB0B90027CCF26907404692
:1005F000314600223B46002501F02FFA58B90F9BE7
:10060000504659464A4601F01DF84246334600F02E
:10061000D1FC05460F46C4E90857D4E906235046E5
:10062000594601F00DF90F9B4A4600F077FDCDE9E0
:10063000001094E84C00D146D4F80CA04846594626
:1006400001F000F8CDF808B08346884630465146A0
:100650002A463B4600F0F6FF02460B465846414606
:1006600000F0A8FC0546D4E904230E46DDE900109D
:1006700000F0E8FF02460B462846314600F09AFC9F
:10068000029AC4E9069203B0BDE8F08F40F29000F0
:10069000C2F200000068704740F608020128C4F268
:1006A000010209D0032805D0022814BF002202F558
:1006B000806201E002F50062106801228A40104069
:1006C000C840704780B500F01AFF44F20003C4F23E
:1006D0008F03002200F022FD48F20003C4F27603EB
:1006E000002200F0AFFF80BD80B500F001F880BDB2
:1006F00082B041F204000021C4F202000191009195
:1007000050F8041C41F4803140F8041C50F8041CDB
:1007100001F400310091019901310191009919B959
:100720000199B1F5A06FF1D150F8041C890354BFB1
:100730000021012100910099012936D142F20001E6
:10074000C4F202010A6842F010020A600A6822F04C
:1007500007020A600A6842F002020A60016801604A
:1007600001680160016841F480610160016821F461
:100770007C110160016841F4E811016050F8041C2B
:1007800041F0807140F8041C50F8041C8901FBD52D
:10079000016821F003010160016841F0020101607C
:1007A000016801F00C010829FAD102B0704700007D
:1007B00080B541F20000C4F202000168002241F05D
:1007C000010101604168CFF6FF02114041600168FC
:1007D0004FF6FF72CFF6F66211400160016821F416
:1007E00080210160416821F4FE0141604FF41F0146
:1007F0008160FFF779FF4EF60850CEF200004FF00F
:100800000061016080BD00002DE9F04184B001204D
:1008100000F00AFB40F29800C2F20000D0E9006547
:100820000023C4F26403304629460022002701F069
:100830000DF940F288080028C2F2000842D14EF2B9
:100840000003C4F2700330462946002201F0F0F89C
:100850004FF00004B8BB49F6991049F69A11C3F657
:10086000B970C9F69911CDE90065CDE9021040F2E1
:10087000000048F20003C2F20000C4F26603002246
:100880000027FFF795FE44F20004C4F27F040546FA
:100890000E4600222346C8E9005601F0D0F890B970
:1008A00044F20004CCF27F0428463146002223465D
:1008B000002701F0BDF8002808BFC8E9007404B0A3
:1008C000BDE8F0810024C8E9007404B0BDE8F081FF
:1008D000B0B50A78002A08BFB0BD04464D1E00BF5F
:1008E000D1B2204600F006F8AA780135002AF7D1E7
:1008F000B0BD000001280BD0032815D0022820D15C
:1009000044F20042C4F2000213881B06FCD506E044
:1009100043F60002C4F2010213881B06FCD5043220
:100920000328118018BF704744F20040C4F2000051
:10093000B0F800241206FBD544F60400C4F200000F
:100940000180704770B541F218060546C4F20206F0
:1009500000F094F83168044641F00100032D306046
:1009600030D0022D5ED0012D18BF70BD72B6306838
:10097000092140F48040306001200322022300F06E
:100980009FF901200A210022022300F099F943F681
:100990000C00C4F2010020F8044C018841F0080169
:1009A0000180018841F004010180018841F4005177
:1009B0000180018841F020010180252000F0B6F877
:1009C00062B670BD72B670680A2140F48020706013
:1009D00002200322022300F073F901200B210022E0
:1009E000022300F06DF944F20C40C4F20000A0F8BC
:1009F000FC4344F60C00C4F20000018841F00801F9
:100A00000180018841F004010180018841F4005116
:100A10000180018841F020010180272000F086F844
:100A200062B670BD72B67068022140F4003070602A
:100A300001200322022300F043F9012003210022B8
:100A4000022300F03DF944F20C40C4F2000020F80B
:100A5000044C018841F008010180018841F0040143
:100A60000180018841F400510180018841F020019A
:100A70000180262000F05AF862B670BDF0B581B052
:100A800045F2001242F68825C0F225220128C4F260
:100A900081154FEA011004BF4AF20022C0F24A4217
:100AA000B2FBF0F404BF42F68825C4F2911500F0C1
:100AB0003DFD02460B460020294600F02FFB05466F
:100AC00020460E4600F032FD02460B4628463146CF
:100AD00000F0B6FE0023C4F23003002200F0B2FDA5
:100AE00006460F4600F0DEFC054600F01FFD0246FC
:100AF0000B463046394600F0A3FE0023C4F25903EA
:100B0000002200F09FFD0023C4F24903002200F000
:100B10009DFF38B9681CB0F1100518BF05461028B4
:100B200008BF013405EB041001B0F0BD002848BF38
:100B3000704700F01F01012202FA01F14EF200128B
:100B40004009CEF2000242F820107047002848BF4A
:100B5000704700F01F01012202FA01F14EF200126B
:100B60004009CEF2000242F8201070474EF2001009
:100B7000CEF200004FF4806101607047B0B584B0E0
:100B80000DF106050A46044608A12846FFF720FB9A
:100B900020462946FFF79CFE284600F039F902203E
:100BA0000A21FFF7A7FE04B0B0BD00BF2564000016
:100BB00002280FD001281CBF002070470B2918D82D
:100BC0000120DFE801F006101214161606100610B8
:100BD00012147047481EB0FA80F0400980000029C6
:100BE00008BF03207047022070470320704704208D
:100BF00070470020704700000138032884BF0020A0
:100C00007047DFE800F00215090E40F20040C4F220
:100C1000000000F59430704740F20040C4F200003C
:100C2000704740F20040C4F2000000F58060704759
:100C30004FF0804070470000024602284FF000004D
:100C400018D0012A18BF704704293CBF4FF08040DC
:100C5000704701F0FC00082840F20040C4F2000098
:100C600004BF00F59430704701F0FE01062918BF5B
:100C70000020704702293CBF40F20040C4F200004F
:100C800070470000024602284FF0000013D0012AEE
:100C900018BF704704293CBF0220704701F0FC00D8
:100CA000082804BF0120704701F0FE01002006293A
:100CB00008BF03207047022938BF03207047000097
:100CC000B0B541F2180C40F6000E07294FF00004B1
:100CD000C4F2020CC4F2010E84BF012408390128B9
:100CE0004FF0000523D002282BD0032809D1DCF8CF
:100CF000000040F01000CCF800000EEB840000F57E
:100D000000654FF6FC70C0F2030000EA81000F217D
:100D10002C68814024EA0101296002FA00F10230C6
:100D200003FA00F02A68084310432860B0BDDCF8DD
:100D3000005045F00405CCF800500EEB8405022865
:100D4000D3D1DCF8005045F00805CCF800500EEB8C
:100D5000840505F580650328D3D1C8E786B0012056
:100D6000642100F069F802204FF4E1310224FFF71A
:100D7000E9FD09200DF110080090404601210122F3
:100D800001230194FFF7D0FB052703A801210422CA
:100D900001230097FFF7E2FB40F2980740F2880436
:100DA000C2F20007C2F2000414A516A6FFF76EFCFB
:100DB000FFF788FCD4E90023C7E900011046194673
:100DC00000F040FB01464046FFF73AFB022029466F
:100DD000FFF77EFDFFF75AFC01460220FFF7CEFE2B
:100DE00002203146FFF774FDD7E9000100F02AFB2D
:100DF00001460220FFF7C2FED8E700BF54686574C1
:100E0000613A200050574D2056616C75653A2000BC
:100E10000178002908BF70470138002100F8011F40
:100E20004278002AFAD1704780B5FFF7E5FE018AC3
:100E300021F00101018280BD10B5044600F096F852
:100E4000818941F001018181601EC0B272B6032820
:100E500009D841F61941C000C1F61D6121FA00F020
:100E600040B2FFF773FE62B610BD00002DE9F04FEF
:100E700081B0984691460C460646FFF7DDFE0546D2
:100E800030462146FFF7FEFE074630462146FFF773
:100E90008FFE82466FF00301288C01EB8A0101224C
:100EA00002FA01FB1BEA000F41D141F21800012FA9
:100EB000C4F2020004D1016841F40061016006E05F
:100EC000B91E0122436802FA01F11943416030461C
:100ED000214603220223FFF7F3FEAAF10100472176
:100EE0000328298515D8DFE800F00206090D05F171
:100EF000180060210AE005F1180005E005F11C006A
:100F0000602103E005F11C004FF4C0410288114349
:100F10000180288C40EA0B002884B5F8440040F496
:100F20000040A5F84400288840F001002880AAF17C
:100F30000100A9F101010328A98514D8DFE800F018
:100F400002070C11A5F8348001B0BDE8F08FA5F8B8
:100F5000388001B0BDE8F08FA5F83C8001B0BDE855
:100F6000F08FA5F8408001B0BDE8F08F10B50C46B9
:100F700041F218010128C4F2020104D10A6842F4C6
:100F800000620A6007E0821E4FF0010C4B680CFA09
:100F900002F21A434A60FFF72FFE0021818448F6CF
:100FA0009F41018561008185018841F00101018037
:100FB00010BD000010B591EA030F48BF83F0004355
:100FC00000F14684841A71EB030C05D2121943EB2D
:100FD0000C03001B61EB0C014FEA1154A4EB135CF2
:100FE000DFF81CE11EEA430F18BF9EEA445F73D08E
:100FF00021EA045123EA0E0343F48013DCF1200EAE
:1010000032D322FA0CFE10EB0E0023FA0CFE41EB59
:101010000E01CCF1200E03FA0EFE10EB0E00CCF107
:10102000200E51F10001B1F5801F32D201EB0451C5
:1010300012FA0EF2BDE8104058BF7047401C38BF8E
:101040005FEA420218BF7047002814BF20F0010079
:1010500041F100014FEA410313F5001F38BF70470B
:10106000A1F1C04100F0E6BB012A43EB0302ACF161
:10107000200CDCF11F0E32BF4FF0000E23FA0CF3F0
:1010800010EB030041EB0451B4EB115FD0D0A1EBA6
:10109000045101F58011490801EB04515FEA300069
:1010A0000ED350F1000038BF12FA0EFE08D1BDE891
:1010B0001040C9E7401C38BF5FEA4202CAD1C3E70B
:1010C000BDE810404FEA410313F5001F38BF7047D9
:1010D000A1F1C04100F0AEBB9EEA445F08D011EA26
:1010E0005E0FBDE8104004BF01F0004100207047D2
:1010F000BDE8104070B500F04FFB00BF64FBBE3E82
:101100000000E0FF491058BFC1F140415B1058BFDB
:10111000C3F140438B42EFF3008070472DE9C0419B
:1011200030B4DFF8A0C23CEA111418BF3CEA131433
:1011300000F0EC801CEA111481EA030544EAD5743E
:1011400018BF1CEA131500F0C780A4EB050404F1D6
:101150007F7404F500344FF0004545EAC12145EAAB
:10116000C32341EA505143EA52534FEAC0204FEAA9
:10117000C222994208BF904200F09C804FEA13655A
:101180000FF24016765D4FEA134506FB05F7C7F1EF
:10119000807706FB07F74FEAD737A7FB036876424D
:1011A000A7FB06CEC8F5803838BFA8F1010807FBB9
:1011B00008E6A6FB028C4FF0000EE6FB03CEDCF146
:1011C000000CCEF1004E38BFAEF1010EA6FB0C585C
:1011D0004FF00007E6FB0E87A1FB08C6A0FB07CE79
:1011E00016EB0E064FF0000545F10005E1FB076523
:1011F00015F1E04E7EBFA4F580345FEA46066D41EE
:1012000016F1800745F100054FEA172747EA056701
:101210004FEA15254FEA0666A6F1DE46B6F1805F75
:101220001FD9384605EBC47124F0010C01EB0C11F9
:10123000BCF1FE6F02D8F0BCBDE8008124425CBF67
:1012400001F5801E9EEAC47F02D4F0BCBDE8008197
:10125000244238D4A1F1C041F0BCBDE8004100F007
:10126000E9BA4FEAD02040EA41504FEAD1214FEA93
:10127000D22242EA43524FEAD323A7FB028607FB5E
:10128000036605FB02661EEA0E0F58BFA6EB00566A
:10129000B6EB00564FEA520E4EEAC37E18EB0E0E26
:1012A00056EB530EBDD518EB02085E417F1C55F17D
:1012B0000005B6E74FF480154FF000074FF0000629
:1012C0004FF00008ADE701F1C04101F000414FF0DF
:1012D0000000F0BCBDE800810CEA131511EA0C1FF8
:1012E00000D00CE013EA0C1F00F025804FF0000046
:1012F00081EA030101F00041F0BCBDE80081F0BCCF
:10130000BDE8004181EA030100F094BAF0BCBDE8F9
:10131000004170B500F040FA097EFC3E00F007B8CD
:101320004FF0000081EA030101F00041704781EABB
:10133000030100F07FBAF0BCBDE8004122494FF044
:1013400000007047FFFDFBF9F7F5F4F2F0EEEDEB6E
:10135000E9E8E6E4E3E1E0DEDDDBDAD8D7D5D4D3B3
:10136000D1D0CFCDCCCBCAC8C7C6C5C4C2C1C0BFFF
:10137000BEBDBCBBBAB9B8B7B6B5B4B3B2B1B0AF05
:10138000AEADACABAAA9A8A8A7A6A5A4A3A3A2A1E9
:10139000A09F9F9E9D9C9C9B9A99999897979695A4
:1013A00095949393929191908F8F8E8E8D8C8C8B40
:1013B0008B8A8989888887878685858484838382C8
:1013C000828181800000FF070000F87F51EA030C52
:1013D00017D41CF5801F58BFBCF5801F00F1068094
:1013E000994218BF704708BF9042704707D711F560
:1013F000801F58BF13F5801F19D499427047894246
:1014000070471CF5801F08D5BCF5801FF7D58B42AF
:1014100018BF704708BF824270474FF4001C1CEB96
:10142000410F38BF1CEB430F01D28B42704770B5A0
:1014300000F0B2F9922449004FF000514FF0805370
:10144000FFF760BE4FEA41034FEA5353A3F58063B1
:10145000D3F11E03C8BFD3F1210C0CDD4FF00042C5
:1014600042EAC12242EA505232FA03FC8CEAE17CA1
:10147000ACEBE1707047102BC4BF0020704703F540
:10148000787CBCF1FF3F04D06FF0004282EA21007B
:10149000704770B500F080F94992248000207047B1
:1014A000F2E700004FEA1153A3F58063D3F11E0366
:1014B000A8BFD3F1200C08DB4FF0004242EAC12262
:1014C00052EA505232FA03F0704709420BD4102B03
:1014D000C4BF0020704703F5787CBCF1FF3F05D006
:1014E0004FF0FF3070474FF00000704770B500F0CC
:1014F00053F900BF4992248000207047F0E710F0B4
:10150000004248BF4042B0FA80F310FA03F10AD01B
:10151000C3F11D0303F5806302EB03524FEA415010
:1015200002EBD12170474FF000007047B0FA80F312
:1015300010FA03F10AD0C3F11D0303F580634FEAEB
:1015400003524FEA415002EBD12170474FF00000A7
:101550007047000051EA030C17D41CF5801F58BFD8
:10156000BCF5801F00F10680994218BF704708BF84
:101570009042704707D711F5801F58BF13F5801FA1
:1015800019D499427047894270471CF5801F08D5CD
:10159000BCF5801FF7D58B4218BF704708BF824249
:1015A00070474FF4001C1CEB410F38BF1CEB430F7E
:1015B00001D28B42704770B500F0EEF892244900DA
:1015C0004FF080514FF00053FFF79CBD51EA030CE0
:1015D00017D41CF5801F58BFBCF5801F00F1068092
:1015E000994218BF704708BF9042704707D711F55E
:1015F000801F58BF13F5801F19D499427047894244
:1016000070471CF5801F08D5BCF5801FF7D58B42AD
:1016100018BF704708BF824270474FF4001C1CEB94
:10162000410F38BF1CEB430F01D28B42704770B59E
:1016300000F0B2F8922449004FF000514FF080536F
:10164000FFF760BD70B5DFF848C11CEA111E1EBF70
:101650001CEA13159EEA0C0F95EA0C0F00F06F8040
:1016600081EA03044EEAD47EAE4421EA4C1123EA17
:101670004C1341F4801143F48013AEF17F7EA1FB43
:10168000024CA0FB0365361955EB0C05A1FB034C7E
:101690004CF10003A0FB021C16EB0C06654153F154
:1016A0000003094218BF46F0010613F4007F0BD176
:1016B0004FEA03314FEA053041EA155140EA16502E
:1016C00034036FF003020AE04FEAC3214FEAC5205A
:1016D00041EA555140EA5650F4026FF0020202EB23
:1016E0002E4201EB025585EACE710AD05FEA440C26
:1016F00018BF24F0004450F1000041F1000120EA3D
:10170000D47040F2FE7C624500D270BDA84214BF86
:101710004FF080444FF04044002E08BF0024BEF13B
:10172000806FA8BFA1F1C041BDE8704080F2828007
:1017300001F1C04101F000414FF0000070470CEA98
:1017400013159EEA0C0F18BF95EA0C0F06D081EA1C
:10175000030E4FF000000EF0004170BD00F01CF8C9
:101760008900013E00F007B800F009B84FEA430CC9
:101770005FEA5C5C08D081EA030100F05BB84FEAE5
:10178000410C5FEA5C5CF6D102494FF00000704703
:101790000000FF070000F87F0EF1020E2EF0030E8E
:1017A0005EF8046B364205D4012A43EB030515F5B8
:1017B000001F12D8012841EB010C1CF5001F0CD8AA
:1017C0000ED14FEAD17C0CEB4C0C0CF1020C15F550
:1017D000001F08BF4CEBD37C04E04FF0080C01E085
:1017E0004FEAD37C0CEB4C0526FA05F606F007060B
:1017F000B6F1040C06D20EEB860CBDE870404CF03E
:10180000010C6047DFE80CF0090B02024FF00041C9
:10181000A1F500214FF0000070BD194610460128C7
:1018200051EB010418BFD4F5001484BF002001F06F
:10183000004170BD0808A0F500114FEA3101704762
:1018400010B591EA030F48BF83F000433FF5BAABF0
:10185000841A71EB030C07D28CF0004C121943EB85
:101860000C03001B61EB0C014FEA1154A4EB135C59
:10187000DFF89CE11EEA430F18BF9EEA445F00F0C8
:10188000B08021EA045123EA6E035242C3EB6E0397
:1018900038BF5B1EDCF1200E25D322FA0CFE10EBC4
:1018A0000E0043FA0CFE41EB0E01CCF1200E03FAC0
:1018B0000EFE10EB0E00CCF1200E51F1000129D4E8
:1018C00001EB045112FA0EF2BDE8104058BF704708
:1018D000401C1CBFB2F1004F704700280CBF491CD0
:1018E00020F00100704712EB020E43EB030218BF19
:1018F0004FF0010E4EEA4202ACF1200CDCF11E0E5C
:1019000054D943FA0CFE10EB0E00CCF11E0E51F12F
:10191000FF31D5D50EF1010E12FA0EFE404141EB1A
:10192000010101EB445C5FEA5C5C10D901EB0451FE
:1019300010EBDE7038BFBEF1004FBDE8104018BF9D
:10194000704700280CBF491C20F00100704730D2BE
:101950004FEAD42C24F4006411F500111BD0B1FA25
:1019600081F20B3AA41AA41ED2F12003914030FA5E
:1019700003F31943904001EBCC7101EB0451002CAF
:10198000BDE81040A8BF704701F1C04101F000411F
:101990004FF000007047B0FA80F310FA03F100D165
:1019A00010BDE41A173C4805C90AE4E701EB0451ED
:1019B00010BD49104FEA300001EB0451BDE8104062
:1019C00002E04FF0000170474A0008BF0042F8D023
:1019D000B2F5001F28BF704701F000414FF0000032
:1019E00070479EEA445F07D011EA5E0FBDE81040E1
:1019F00004BF002100207047BDE8104070B5FFF71C
:101A0000CBFE00BF40DFF63E104683F0004170473A
:101A10000000E0FF10B5FFF7D9FC0CBF012000204B
:101A200010BD10B5FFF7D2FC14BF0120002010BD7F
:101A300010B5FFF78FFD8CBF0120002010BD10B541
:101A4000FFF788FD2CBF0120002010BD10B5FFF767
:101A5000BDFD94BF0120002010BD10B5FFF7B6FDFD
:101A600034BF0120002010BD4FF47F0C1CEAD012BF
:101A70001EBF1CEAD11392EA0C0F93EA0C0F00F080
:101A8000858090EA010F48BF42F4807240F4000C58
:101A900041F400002CF07F4120F07F4000B5A2EB24
:101AA000030281420FF2081CACEB504E9EF800E09E
:101AB000C0F100004FEA4E0E00FB0EFC38BF49009B
:101AC0004FEA2C1C0CFB0EF34FEACE1E0EEB635EAE
:101AD0004FEA112C0EFB0CFC4FEAC1214FEA1C53BC
:101AE00000FB031102F5FA024FEA112C0EFB0CFC6D
:101AF0004FEA01314FEADC4C00FB0C1142EB224271
:101B0000C14228BF09184CEB03335DF804EB10EB1E
:101B1000410143EBC250B2F57C0F38BF704729D565
:101B200012F0F00F1CBF00F1C04000F00040704701
:101B3000008182838485868788898B8C8D8E8F91A6
:101B40009293959697999A9C9D9FA0A2A3A5A7A8CA
:101B5000AAACAEB0B2B3B5B7B9BCBEC0C2C5C7C9F6
:101B6000CCCED1D4D7D9DCDFE2E6E9ECF0F3F7FA5A
:101B7000FE0000004FEA400C0CF1807CBCF17E4F6F
:101B800028BF7047B0F1C04000F02BB90CEAD11368
:101B900090EA010F48BF42F48072624538BF634546
:101BA00007D213F47F0F16D080EA010000F0004046
:101BB000704710B500F0CFF8097EFC3E00F005B884
:101BC00080EA010000F00040704780EA010000F068
:101BD000004000F006B912F47F0F04BF02487047BE
:101BE00080EA010000F0FDB80000C07F41000B0E4C
:101BF000D3F19E0208D950F400034FEA032323FADD
:101C000002F048BF4042704710B500F0A4F800BF92
:101C100049922480002070476FF0004282EA200041
:101C20007047000010F0004148BF4042B0FA80F316
:101C300010FA03F2C3F19D030BD051EAC35101EB3B
:101C40001220530638BF704700F1010008BF20F092
:101C5000010070474FF47F0C1CEAD0121EBF1CEA33
:101C6000D11392EA0C0F93EA0C0F00F0478090EA30
:101C7000010F48BF42F480724FF0004C4CEA002044
:101C80004CEA012102EB0302A0FB0113A2F50002C2
:101C9000002918BF43F001035B0028BF4FEA33035C
:101CA00042EB22425FEA132C4CEBC2502EBFBCEB3E
:101CB000436FB2F57C0F70474FEA036CBCF1004FE5
:101CC00008BF20F00100B2F57C0F38BF70470BD57C
:101CD00082F0FF0212F5803FC8BF704700F1C0409C
:101CE000D8BF00F00040704700F5000C5FEA4C0CD4
:101CF00048BF7047B0F1C04000F073B80CEAD11390
:101D000090EA010F48BF42F48072624538BF6345D4
:101D100004D280EA010000F00040704710B500F0E6
:101D20001AF800BF8900013E00F007B800F009B8BA
:101D30005FEA410C5FEA1C6C08D080EA010000F009
:101D400050B85FEA400C5FEA1C6CF6D14FF00040DF
:101D5000A0F5800070470EF1020E2EF0030E5EF823
:101D6000044B244204D44FEA4102B2F17F4F11D810
:101D70004FEA4003B3F17F4F0CD80ED14FEAD07C2D
:101D80000CEB4C0C0CF1020CB2F17F4F08BF4CEB8A
:101D9000D17C04E04FF0080C01E04FEAD17C0CEB61
:101DA0004C0324FA03F404F00704B4F1040C06D243
:101DB0000EEB840CBDE810404CF0010C6047DFE8EE
:101DC0000CF0070802024FF00040A0F5800010BDA3
:101DD0000846420018BFD2F1807288BF00F0004070
:101DE00010BDFF2141EAD050C0057047101E000809
:101DF000000000202800000028010008381E00080C
:101E000028000020780600004401000800000000BF
:101E10000000000000004E400000000000002040D4
:101E2000000000000000144000000000000000005E
:081E30000000000000000000AA
:04000005080000ED02
:00000001FF
